:020000040800F2
:10000000981000200D0200085D1800084913000830
:1000100099140008F9070008BD2E00080000000030
:10002000000000000000000000000000F11C0008BB
:100030001D0C00080000000091190008691E00084E
:1000400027020008270200082702000827020008EC
:1000500027020008270200082702000827020008DC
:1000600027020008270200082702000827020008CC
:1000700027020008270200082702000827020008BC
:1000800027020008270200082702000827020008AC
:10009000270200082702000827020008270200089C
:1000A000270200082702000827020008270200088C
:1000B00027020008B11F00082702000827020008D5
:1000C000270200082702000827020008270200086C
:1000D00027020008F9240008CD2500086927000838
:1000E000270200082702000827020008270200084C
:1000F000270200082702000827020008270200083C
:100100002702000827020008A12000082702000893
:10011000A5240008D12400082702000827020008AF
:10012000270200082702000827020008270200080B
:1001300000F002F800F05AF80AA090E8000C82449F
:100140008344AAF10107DA4501D100F04FF8AFF27C
:10015000090EBAE80F0013F0010F18BFFB1A43F0A5
:1001600001031847203E0000403E00000A444FF0C3
:10017000000C10F8013B13F0070408BF10F8014B06
:100180001D1108BF10F8015B641E05D010F8016B4B
:10019000641E01F8016BF9D113F0080F1EBF10F8AF
:1001A000014BAD1C0C1B09D16D1E58BF01F801CBD2
:1001B000FAD505E014F8016B01F8016B6D1EF9D555
:1001C0009142D6D37047000000230024002500266A
:1001D000103A28BF78C1FBD8520728BF30C148BFAA
:1001E0000B6070471FB51FBD10B510BD00F063F860
:1001F0001146FFF7F7FF02F0A1FF00F081F803B40A
:10020000FFF7F2FF03BC00F085F8000009488047C3
:1002100009480047FEE7FEE7FEE7FEE7FEE7FEE7E8
:10022000FEE7FEE7FEE7FEE704480549054A064B00
:10023000704700006D1E000831010008980A002078
:1002400098100020980C0020980C002010B5203A3F
:10025000C0F00B80B1E81850203AA0E81850B1E87F
:100260001850A0E81850BFF4F5AF5FEA027C24BF35
:10027000B1E81850A0E8185044BF18C918C0BDE82C
:1002800010405FEA827C24BF51F8043B40F8043BF5
:1002900008BF7047D20728BF31F8023B48BF11F8AA
:1002A000012B28BF20F8023B48BF00F8012B704704
:1002B000704770477047754600F028F8AE46050055
:1002C0006946534620F00700854618B020B5FFF771
:1002D000ABFFBDE820404FF000064FF000074FF0A5
:1002E00000084FF0000B21F00701AC46ACE8C00954
:1002F000ACE8C009ACE8C009ACE8C0098D4670475D
:100300000446AFF300802046FFF779FF00487047AE
:10031000340A002001491820ABBEFEE72600020087
:10032000704700002DE9F05F04460D461646610057
:10033000694301FB06F003F0DCF907460022094B94
:1003400003F052F881468A460022074B4846514640
:1003500002F0A2FF074603F09FF983465846BDE826
:10036000F09F0000008076400000E03F10B500F0F4
:10037000EDFF00F071FF00F0CBFC01F02DF800F074
:100380006BFF00F0C5FC10BD10B5012005490860E9
:100390004FF4FA7002F0C4FE00200349C1F8A00136
:1003A00010BD0000A08121420080214208B501213A
:1003B000082001F0FFFA4FF48070ADF80000102023
:1003C0008DF8030003208DF802006946044800F010
:1003D000C3FD4FF48071024800F049FE08BD0000E3
:1003E000000C014010B50120144908604FF47A70E8
:1003F00002F096FE00201249C1F8A0014FF47A7075
:1004000002F08EFE01200D4908604FF47A7002F070
:1004100087FE00200A49C1F8A0014FF47A7002F06B
:100420007FFE0120054908604FF47A7002F078FEE3
:1004300000200349C1F8A00110BD0000A0812142A5
:100440000080214210B50120144908604FF47A70F1
:1004500002F066FE00201249C1F8A0014FF47A7044
:1004600002F05EFE01200D4908604FF47A7002F040
:1004700057FE00200A49C1F8A0014FF47A7002F03B
:100480004FFE0120054908604FF47A7002F048FEE3
:1004900000200349C1F8A00110BD0000A081214245
:1004A0000080214210B50020104908604FF4FA7016
:1004B00002F036FE01200E49C1F8A0014FF4FA7097
:1004C00002F02EFE0020094908604FF4FA7002F095
:1004D00027FE01200649C1F8A0014FF4FA7002F08E
:1004E0001FFE00200149086010BD0000A0812142CC
:1004F0000080214210B5012027490860642002F0E5
:100500000FFE00202549C1F8A001642002F008FE7A
:10051000012021490860642002F002FE00201F49EA
:10052000C1F8A0014FF47A7002F0FAFD01201A49D7
:100530000860642002F0F4FD00201849C1F8A00111
:10054000642002F0EDFD01201449C1F8A0016420EF
:1005500002F0E6FD00201149C1F8A0014FF47A70C5
:1005600002F0DEFD01200D49C1F8A001642002F077
:10057000D7FD00200949C1F8A001642002F0D0FD98
:1005800001200649C1F8A001642002F0C9FD002045
:100590000249C1F8A00110BDA08121420080214282
:1005A0002DE9F04389B0864903C9CDE907018449A3
:1005B000083103C9CDE905018149103103C9CDE9ED
:1005C00003017F49183103C9CDE90101002522E06B
:1005D00000207C4941F825007B4941F825007B49F2
:1005E00041F825007A4941F825007A4921F815009B
:1005F000794921F81500794921F81500784921F841
:1006000015007849485578494855784948557849FA
:100610004855681CC5B2062DDADB0024C9E007A9DD
:10062000601C51F8200051F82410401A654941F827
:10063000240005A9601C51F8200051F82410401A2C
:10064000614941F8240003A9601C51F8200051F8C9
:100650002410401A5D4941F8240001A9601C51F89A
:10066000200051F82410401A594941F824005548F7
:1006700050F82400002809DA01205A490855514849
:1006800050F8240040424F4941F824004E4850F8A9
:100690002400002809DA0120534908554A4850F837
:1006A00024004042484941F82400484850F82400BA
:1006B000002803DD01204D49085506E0434850F865
:1006C00024004042414941F82400414850F82400A8
:1006D000002803DD01204649085506E03C4850F853
:1006E000240040423A4941F82400364850F824009A
:1006F000354951F824100844344951F8241008446D
:10070000334951F824104618F11706EB91718810FF
:1007100003F0ECFA80462B4951F8240003F0E6FA86
:100720008146344903F0FAFA0746414603F0E0F9FE
:10073000064603F0BBFA274921F81400224951F874
:10074000240003F0D3FA81462A4903F0E7FA07466A
:10075000414603F0CDF9064603F0A8FA1E4921F8F8
:1007600014001A4951F8240003F0C0FA81462149C7
:1007700003F0D4FA0746414603F0BAF9064603F0FF
:1007800095FA164921F81400114951F8240003F094
:10079000ADFA8146174903F0C1FA0746414603F016
:1007A000A7F9064603F082FA0D4921F81400601CEF
:1007B000C4B2012CFFF633AF09B0BDE8F0830000EE
:1007C000B43E00088C040020A4040020BC040020D7
:1007D000D4040020CC000020D8000020E400002039
:1007E000F00000208C0100209201002098010020E0
:1007F0009E0100200000164300BFFEE736490A783C
:100800000978491C344B19703449885409785529A2
:1008100003D000211A46117070472F4909780B291F
:1008200000DAF9E72D494978503909294ED2DFE835
:1008300001F0050D151D252D353D45002849274A98
:10084000921C13680B6052684A603FE02549234AB6
:10085000921C13680B6052684A6037E022491F4AB5
:10086000921C13680B6052684A602FE01F491B4AB4
:10087000921C13680B6052684A6027E01C49174AB3
:10088000921C13680B6052684A601FE01949134AB2
:10089000921C13680B6052684A6017E016490F4AB1
:1008A000921C13680B6052684A600FE013490B4AB0
:1008B000921C13680B6052684A6007E01049074AAF
:1008C000921C13680B6052684A6000BF00BF002191
:1008D000014A117000BF9FE7240200204C0600204F
:1008E000DA010020E2010020EA010020F2010020EC
:1008F000FA010020020200200C0200201402002055
:100900001C02002036490A780978491C344B1970BA
:10091000344988540978552903D000211A461170AA
:1009200070472F4909780B2900DAF9E72D494978F2
:10093000503909294ED2DFE801F0050D151D252D8E
:10094000353D45002849274A921C13680B605268C0
:100950004A603FE02549234A921C13680B605268A5
:100960004A6037E022491F4A921C13680B605268A4
:100970004A602FE01F491B4A921C13680B605268A3
:100980004A6027E01C49174A921C13680B605268A2
:100990004A601FE01949134A921C13680B605268A1
:1009A0004A6017E016490F4A921C13680B605268A0
:1009B0004A600FE013490B4A921C13680B6052689F
:1009C0004A6007E01049074A921C13680B6052689E
:1009D0004A6000BF00BF0021014A117000BF9FE7BD
:1009E00074020020460700202C0200203402002060
:1009F0003C020020440200204C020020540200204F
:100A00005C020020640200206C02002036490A7853
:100A10000978491C344B1970344988540978552990
:100A200003D000211A46117070472F4909780B290D
:100A300000DAF9E72D494978503909294ED2DFE823
:100A400001F0050D151D252D353D45002849274A86
:100A5000921C13680B6052684A603FE02549234AA4
:100A6000921C13680B6052684A6037E022491F4AA3
:100A7000921C13680B6052684A602FE01F491B4AA2
:100A8000921C13680B6052684A6027E01C49174AA1
:100A9000921C13680B6052684A601FE01949134AA0
:100AA000921C13680B6052684A6017E016490F4A9F
:100AB000921C13680B6052684A600FE013490B4A9E
:100AC000921C13680B6052684A6007E01049074A9D
:100AD000921C13680B6052684A6000BF00BF00217F
:100AE000014A117000BF9FE7C802002040080020A3
:100AF000800200208802002090020020980200203E
:100B0000A0020020A8020020B0020020B8020020AD
:100B1000C002002036490A780978491C344B197004
:100B2000344988540978552903D000211A46117098
:100B300070472F4909780B2900DAF9E72D494978E0
:100B4000503909294ED2DFE801F0050D151D252D7C
:100B5000353D45002849274A921C13680B605268AE
:100B60004A603FE02549234A921C13680B60526893
:100B70004A6037E022491F4A921C13680B60526892
:100B80004A602FE01F491B4A921C13680B60526891
:100B90004A6027E01C49174A921C13680B60526890
:100BA0004A601FE01949134A921C13680B6052688F
:100BB0004A6017E016490F4A921C13680B6052688E
:100BC0004A600FE013490B4A921C13680B6052688D
:100BD0004A6007E01049074A921C13680B6052688C
:100BE0004A6000BF00BF0021014A117000BF9FE7AB
:100BF000180300203A090020D0020020D80200206B
:100C0000E0020020E8020020F0020020F8020020AC
:100C1000000300200803002010030020704700009C
:100C2000002041E0224931F81010224A22F8101029
:100C3000214931F81010214A22F81010204931F8CA
:100C40001010204A22F810101F4931F810101F4AC6
:100C500022F810101E4931F810101E4A22F8101008
:100C60001D4931F810101D4A22F810101C4931F8A6
:100C700010101C4A22F810101B4931F810101B4AA2
:100C800022F810101A49095C1A4A11541A49095CD1
:100C90001A4A11541A49095C1A4A11541A49095C32
:100CA0001A4A1154411CC8B20628BBDB7047000029
:100CB0006C0000205C040020780000206804002004
:100CC0008400002074040020900000208004002094
:100CD000FC0000201C050020080100202805002041
:100CE00014010020340500202001002040050020D0
:100CF000A40100205C010020AA0100206201002064
:100D0000B001002068010020B60100206E01002023
:100D10002DE9F0410020774908600121764801F073
:100D2000D8F90024D9E07548005D75490860754818
:100D300030F8140074490880744830F81420642195
:100D400040F6C41001F04AF86F490881084600894E
:100D50006F4908806F48005D6F49C1F880016F4896
:100D600030F81400684948806D4830F81420642138
:100D700040F6C41001F032F86349488108464089C2
:100D8000684908806848005D5D49343908606748F3
:100D900030F814005C498880654830F814206421DC
:100DA00040F6C41001F01AF8574988810846808936
:100DB000604908806048005D5749C1F8B4015F4848
:100DC00030F814005049C8805D4830F81420642180
:100DD00040F6C41001F002F84B49C8810846C089AA
:100DE0005849088001220221434801F09CF9012260
:100DF0000421414801F097F9012208213E4801F001
:100E000092F9012210213C4801F08DF961E03E4841
:100E10000288642140F6C410FFF784FA4A49096841
:100E2000884208D800220221334801F07CF90020D2
:100E300045490860012534484288642140F6C410C1
:100E4000FFF770FA41490968884208D80022042156
:100E5000294801F068F900203C49086001262A4829
:100E60008288642140F6C410FFF75CFA38490968AB
:100E7000884208D8002208211F4801F054F90020B8
:100E80003349086001272048C288642140F6C41015
:100E9000FFF748FA2F490968884209D80022102133
:100EA000154801F040F900202A4908604FF0010878
:100EB000012D0ED1012E0CD1012F0AD1B8F1010F55
:100EC00007D1002500260027A8460A2002F028F9AD
:100ED00000E09CE700BF601CC4B2062CFFF623AF05
:100EE0000021054801F0F5F8012002490860BDE83D
:100EF000F081000094012342000400405C010020C6
:100F0000B88123425C0400204C0400201C05002012
:100F100018000020620100200080234268040020A5
:100F20002805002020000020680100207404002013
:100F300034050020280000206E01002080040020DD
:100F400040050020300000201C000020240000206C
:100F50002C000020340000202DE9F041024600253D
:100F60000026002000230024002791F803C00CF085
:100F70000F0591F803C00CF0100CBCF1000F03D06A
:100F800091F802C04CEA050591F800C0BCF1000FD1
:100F900031D0146800202BE04FF0010C0CFA00F364
:100FA000B1F800C00CEA03069E4220D183004FF046
:100FB0000F0C0CFA03F7BC4305FA03FC4CEA0404DB
:100FC00091F803C0BCF1280F06D14FF0010C0CFAC8
:100FD00000FCC2F814C00AE091F803C0BCF1480F4D
:100FE00005D14FF0010C0CFA00FCC2F810C0401CF7
:100FF0000828D1D31460B1F800C0BCF1FF0F34DD74
:10100000546800202EE000F1080C4FF0010808FAA7
:101010000CF3B1F800C00CEA03069E4221D1830014
:101020004FF00F0C0CFA03F7BC4305FA03FC4CEA33
:10103000040491F803C0BCF1280F05D100F1080C9D
:1010400008FA0CF8C2F8148091F803C0BCF1480FFC
:1010500007D100F1080C4FF0010808FA0CF8C2F8AB
:101060001080401C0828CED35460BDE8F081416157
:10107000704701617047000070B50B49B1F900007D
:1010800002F034FE06464FF08E4102F031FD054677
:10109000064902F043FE044602F0ECFD04490860F4
:1010A0000846006870BD0000F201002000003443D3
:1010B0002802002070B50B49B1F9000002F016FEBD
:1010C00006464FF08E4102F013FD0546064902F038
:1010D00025FE044602F0CEFD04490860084600687B
:1010E00070BD00004402002000003443780200205C
:1010F00070B50B49B1F9000002F0F8FD06464FF05B
:101100008E4102F0F5FC0546064902F007FE044652
:1011100002F0B0FD044908600846006870BD000098
:101120009802002000003443CC02002070B50B4927
:10113000B1F9000002F0DAFD06464FF08E4102F0F0
:10114000D7FC0546064902F0E9FD044602F092FD8F
:10115000044908600846006870BD0000E8020020ED
:10116000000034431C030020002041E0224931F8F4
:101170002010224A22F81010214931F82010214A6B
:1011800022F81010204931F82010204A22F81010BF
:101190001F4931F820101F4A22F810101E4931F85B
:1011A00010101E4A22F810101D4931F810101D4A67
:1011B00022F810101C4931F810101C4A22F81010A7
:1011C0001B4931F810101B4A22F810101A49095C0B
:1011D0001A4A11541A49095C1A4A11541A49095CED
:1011E0001A4A11541A49095C1A4A1154411CC8B2CE
:1011F0000628BBDB704700008C0400205C04002044
:10120000A404002068040020BC0400207404002012
:10121000D404002080040020CC0000201C05002005
:10122000D800002028050020E4000020340500201C
:10123000F0000020400500208C0100205C0100200F
:101240009201002062010020980100206801002026
:101250009E0100206E010020002041E0224931F86B
:101260001010224A22F81010214931F81010214A9A
:1012700022F81010204931F81010204A22F81010DE
:101280001F4931F810101F4A22F810101E4931F87A
:1012900010101E4A22F810101D4931F810101D4A76
:1012A00022F810101C4931F810101C4A22F81010B6
:1012B0001B4931F810101B4A22F810101A49095C1A
:1012C0001A4A11541A49095C1A4A11541A49095CFC
:1012D0001A4A11541A49095C1A4A1154411CC8B2DD
:1012E0000628BBDB70470000EC0400205C040020F3
:1012F000F804002068040020040500207404002085
:1013000010050020800400202C0100201C05002076
:101310003801002028050020440100203405002069
:101320005001002040050020BC0100205C0100208D
:10133000C201002062010020C801002068010020D5
:10134000CE0100206E01002000BFFEE770B5002036
:101350001249088012490880FFF7CAFEC0F15A05F9
:10136000002D03DD00200F49087003E001200D4926
:1013700008706D420C490D80FFF79CFEC0F15A04C5
:10138000002C03DD00200949087003E00120074913
:101390000870644206490C8070BD0000F80400200B
:1013A00010050020BC010020EC040020C801002032
:1013B0000405002008B50121402000F0FBFA1820A8
:1013C000ADF8000048208DF8030069460148FFF79A
:1013D000C3FD08BD0018014070B500201249088007
:1013E00012490880FFF7A2FEC0F15A05002D03DD67
:1013F00000200F49087003E001200D4908706D427C
:101400000C490D80FFF738FEC0F15A04002C03DDB3
:1014100000200949087003E0012007490870644270
:1014200006490C8070BD0000EC040020040500207B
:10143000C2010020F8040020CE0100201005002089
:1014400008B50121482000F0B5FA2020ADF80000D1
:1014500010208DF8030003208DF8020069460C4827
:10146000FFF77AFD2020ADF8000010208DF8030072
:1014700003208DF8020069460648FFF76DFD202124
:101480000348FFF7F6FD20210248FFF7F2FD08BDF3
:10149000000C01400018014000BFFEE72DE9F043B9
:1014A00089B0864903C9CDE907018449083103C9D8
:1014B000CDE905018149103103C9CDE903017F4917
:1014C000183103C9CDE90101002522E000207C4943
:1014D00041F825007B4941F825007B4941F825006A
:1014E0007A4941F825007A4921F81500794921F80F
:1014F0001500794921F81500784921F81500784937
:101500004855784948557849485578494855681CA0
:10151000C5B2062DDADB0024C9E007A9601C51F82A
:10152000200051F82410401A654941F8240005A90B
:10153000601C51F8200051F82410401A614941F80C
:10154000240003A9601C51F8200051F82410401A0F
:101550005D4941F8240001A9601C51F8200051F8B0
:101560002410401A594941F82400554850F82400E5
:10157000002809DA01205A490855514850F824003A
:1015800040424F4941F824004E4850F824000028BA
:1015900009DA0120534908554A4850F824004042CE
:1015A000484941F82400484850F82400002803DD49
:1015B00001204D49085506E0434850F824004042B8
:1015C000414941F82400414850F82400002803DD37
:1015D00001204649085506E03C4850F824004042A6
:1015E0003A4941F82400364850F82400354951F86A
:1015F00024100844344951F824100844334951F860
:1016000024104618F11706EB9171881002F06EFB5A
:1016100080462B4951F8240002F068FB814634498A
:1016200002F07CFB0746414602F062FA064602F0F1
:101630003DFB274921F81400224951F8240002F00B
:1016400055FB81462A4902F069FB0746414602F0F4
:101650004FFA064602F02AFB1E4921F814001A49E7
:1016600051F8240002F042FB8146214902F056FB6A
:101670000746414602F03CFA064602F017FB1649BF
:1016800021F81400114951F8240002F02FFB814683
:10169000174902F043FB0746414602F029FA064685
:1016A00002F004FB0D4921F81400601CC4B2012CA7
:1016B000FFF633AF09B0BDE8F0830000443F0008F7
:1016C0008C040020A4040020BC040020D4040020CA
:1016D000CC000020D8000020E4000020F000002012
:1016E0008C01002092010020980100209E01002022
:1016F0000000164308B501214FF4D07000F05AF9EC
:1017000010208DF803000820ADF8000003208DF8AC
:10171000020069464E48FFF71FFC10208DF80300B9
:10172000ADF8000003208DF8020069464848FFF735
:1017300013FC10208DF803000120ADF800000320F9
:101740008DF8020069464348FFF706FC10208DF82B
:1017500003000220ADF8000003208DF80200694666
:101760003C48FFF7F9FB10208DF80300ADF80000AE
:1017700003208DF8020069463648FFF7EDFB102084
:101780008DF803002020ADF8000003208DF8020042
:1017900069463048FFF7E0FB10208DF80300000198
:1017A000ADF8000003208DF8020069462948FFF7D4
:1017B000D3FB10208DF803004001ADF8000003209A
:1017C0008DF8020069462348FFF7C6FB10208DF80C
:1017D00003000120ADF8000003208DF802006946E7
:1017E0001D48FFF7B9FB10208DF803000220ADF86B
:1017F000000003208DF8020069461748FFF7ACFB94
:1018000010208DF803000420ADF8000003208DF8AF
:10181000020069461048FFF79FFB10208DF8030077
:101820004002ADF8000003208DF8020069460A4826
:10183000FFF792FB10208DF803008002ADF8000046
:1018400003208DF8020069460348FFF785FB08BDB9
:101850000014014000200140001C0140704708B501
:101860004FF4C06000F048F81D208DF80000002003
:101870008DF801008DF8020001208DF80300684604
:1018800000F002F808BD000070B5002100230F220F
:10189000C47804B3154C246804F4E064C4F5E0642F
:1018A000210AC1F10403CA40447804FA03F18478A0
:1018B0001440214309010E4C0678A155047804F028
:1018C0001F050124AC4005786D11AD0005F1E02540
:1018D000C5F8004109E0047804F01F050124AC407C
:1018E000044D0678761145F8264070BD0CED00E0F9
:1018F00000E400E080E100E002490143024A116097
:10190000704700000000FA050CED00E008B5012169
:101910000C2000F04FF80121022000F03BF840209D
:10192000ADF8000018208DF8030003208DF80200A8
:1019300069461548FFF710FB8020ADF8000018201D
:101940008DF8030003208DF8020069460E48FFF76A
:1019500003FB0120ADF8000018208DF803000320E0
:101960008DF8020069460948FFF7F6FA0220ADF843
:10197000000018208DF8030003208DF8020069464E
:101980000248FFF7E9FA08BD00080140000C0140D9
:101990007047000029B1064AD2690243044BDA615C
:1019A00004E0034AD2698243014BDA6170470000C8
:1019B0000010024029B1064A92690243044B9A6121
:1019C00004E0034A92698243014B9A617047000028
:1019D0000010024030B500210022002400232D4DCC
:1019E0006D6805F00C0121B1042905D0082923D127
:1019F00005E0294D056022E0274D05601FE0254DDB
:101A00006D6805F47012234D6D6805F4803402256D
:101A100005EB92421CB9214D554305600BE01D4D6D
:101A20006D6805F400351DB11C4D5543056002E09D
:101A3000194D5543056002E0174D056000BF00BF1A
:101A4000144D6D6805F0F0010909154D6B5C0568D2
:101A5000DD4045600F4D6D6805F4E061090A104DE9
:101A60006B5C4568DD4085600A4D6D6805F460512A
:101A7000C90A0B4D6B5C4568DD40C560054D6D685E
:101A800005F44041890B074D6B5CC568B5FBF3F568
:101A9000056130BD0010024000127A0000093D00CF
:101AA00002000020120000202DE9F04389B0824995
:101AB00003C9CDE907018049083103C9CDE9050112
:101AC0007D49103103C9CDE903017B49183103C9B0
:101AD000CDE90101002522E00020784941F82500E8
:101AE000774941F82500774941F82500764941F8C2
:101AF0002500764921F81500754921F8150075492A
:101B000021F81500744921F81500744948557449A5
:101B100048557449485574494855681CC5B2062D46
:101B2000DADB6649079808606549059808606549E9
:101B300003980860644901980860DDE90710401ABD
:101B40005E494860DDE90510401A5D494860DDE9FD
:101B50000310401A5B494860DDE90110401A5A49F8
:101B600048600024A1E0554850F82400002809DA14
:101B700001205A490855514850F8240040424F4925
:101B800041F824004E4850F82400002809DA0120CA
:101B9000534908554A4850F824004042484941F802
:101BA0002400484850F82400002803DD01204D4956
:101BB000085506E0434850F824004042414941F8A6
:101BC0002400414850F82400002803DD0120464944
:101BD000085506E03C4850F8240040423A4941F894
:101BE0002400364850F82400354951F824100844A0
:101BF000344951F824100844334951F82410461848
:101C0000F11706EB9171881002F070F880462B49AD
:101C100051F8240002F06AF88146344902F07EF857
:101C20000746414601F064FF064602F03FF82749A7
:101C300021F81400224951F8240002F057F8814697
:101C40002A4902F06BF80746414601F051FF06466B
:101C500002F02CF81E4921F814001A4951F824000A
:101C600002F044F88146214902F058F807464146FF
:101C700001F03EFF064602F019F8164921F814005B
:101C8000114951F8240002F031F88146174902F059
:101C900045F80746414601F02BFF064602F006F8DC
:101CA0000D4921F81400601CC4B2022CFFF65BAF92
:101CB00009B0BDE8F0830000D43E00088C04002089
:101CC000A4040020BC040020D4040020CC00002088
:101CD000D8000020E4000020F00000208C0100204B
:101CE00092010020980100209E0100200000164370
:101CF000704710B500F002F810BD00000CB50020D0
:101D0000019000903348006840F480303149086009
:101D100000BF3048006800F4003000900198401C7B
:101D20000190009818B90198B0F5A06FF1D1294839
:101D3000006800F4003010B10120009001E00020A4
:101D400000900098012843D12348006840F010001B
:101D5000214908600846006820F003000860084632
:101D6000006840F0020008601A484068194948605D
:101D70000846406848600846406840F48060486013
:101D80000846406820F47C1048600846406840F4EB
:101D9000E81048600846006840F08070086000BFA6
:101DA0000C48006800F000700028F9D0094840682D
:101DB00020F00300074948600846406840F00200F0
:101DC000486000BF0348406800F00C000828F9D1C3
:101DD0000CBD000000100240002002402DE9F04F31
:101DE00087B004468946924604FB09F101FB0AF0DC
:101DF00001F07FFCCDE9040100201649DDE9042350
:101E000001F0F2FACDE902010022134BDDE90201F3
:101E100001F086FC07460022104B01F081FC0546CC
:101E200000220F4B01F07CFCCDE9000100224FF0B5
:101E30008043DDE9000101F0D7FA07460022094B93
:101E400001F02AFA054601F027FC8346584607B000
:101E5000BDE8F08F882A71410000184000004E4014
:101E6000000024400000E03F7047000010B5134818
:101E7000006840F0010011490860084640681049B8
:101E800008400E494860084600680E4908400B4962
:101E900008600846006820F4802008600846406812
:101EA00020F4FE0048604FF41F008860FFF721FF18
:101EB0004FF000600449086010BD000000100240AF
:101EC0000000FFF8FFFFF6FE08ED00E000B587B068
:101ED0004FF6FF70ADF814000320ADF8100000209D
:101EE000ADF81600ADF8120004A92C4800F088FAED
:101EF0003020ADF800000020ADF808000220ADF859
:101F00000A000020ADF80C00ADF80E000120ADF87D
:101F1000020023480088ADF8060069461F4800F01B
:101F20000BF900211D4800F053F90120ADF8020023
:101F30001C480088ADF806006946184800F052F9C0
:101F40000021164800F0A0F90120ADF80200164863
:101F50000088ADF806006946104800F0A3F900219A
:101F60000E4800F0EFF90120ADF802000F4800889C
:101F7000ADF806006946094800F0EEF9002107486F
:101F800000F028FA0021054800F0A3F800221E21E5
:101F9000024800F0C8F807B000BD0000000400408F
:101FA0001800002020000020280000203000002021
:101FB00010B50221314800F0A5F898B102212F4850
:101FC00000F084F82D4800F090F804462C48008872
:101FD000204481B2294800F00AFA2A480068401CCF
:101FE000284908600421254800F08CF898B10421A4
:101FF000224800F06BF8214800F07AF804462248A5
:102000000088204481B21D4800F0F3F91F480068A1
:10201000401C1E4908600821184800F073F898B168
:102020000821164800F052F8144800F064F80446FD
:1020300017480088204481B2104800F0DCF91548A8
:102040000068401C1349086010210C4800F05AF841
:1020500098B11021094800F039F8084800F04EF80E
:1020600004460D480088204481B2044800F0C5F9B8
:102070000A480068401C0949086010BD000400407F
:10208000180000201C000020200000202400002058
:10209000280000202C000020300000203400002008
:1020A00010B50121074800F02DF8012808D1064895
:1020B0000088401C044908800121024800F006F80D
:1020C00010BD0000000C00407C020020CA430282C8
:1020D000704721B1028842F00102028004E00288C8
:1020E0004FF6FE731A40028070470146888E704793
:1020F0000146088F70470146888F70470146B1F846
:102100004000704730B50246002000230024158AA5
:1021100005EA0103958905EA010413B10CB1012018
:1021200000E0002030BD1AB183890B43838102E0B7
:1021300083898B438381704770B50024002200237C
:10214000058C4FF6FE7635400584028C8388048B1F
:102150004FF68F752C40B51E2C400D882C43751EF4
:102160002A400D892A434D882A43144DA8420BD09A
:10217000134DA84208D0134DA84205D0124DA842D5
:1021800002D0124DA84213D14FF6F7752A404D895F
:102190002A434FF6FB752A408D882A434FF6FF6588
:1021A0002B404FF6FF552B408D892B43CD892B4378
:1021B00083800483CD888586028470BD002C014015
:1021C000003401400040014000440140004801400B
:1021D0000A460021018B4FF6F77319401143018322
:1021E0007047000070B5002400220023058C4FF6D4
:1021F000EF7635400584028C8388048B48F6FF75A2
:102200002C404FF6FF452C400D884FF6FF7606EA2E
:1022100005252C434FF6DF752A400D8906EA051582
:102220002A434D8806EA05152A43154DA84202D0D7
:10223000144DA8421DD14FF67F752A404D894FF6A7
:10224000FF7606EA05152A434FF6BF752A408D88AA
:1022500006EA05152A434FF6FF352B404FF2FF756E
:102260002B408D8906EA85052B43CD8906EA850535
:102270002B4383800483CD880587028470BD0000D2
:10228000002C0140003401400A460021018B4FF22E
:10229000FF7319404FF6FF7303EA022319430183CA
:1022A0007047000070B5002400220023058C4FF613
:1022B000FF6635400584028C8388848B4FF68F75CA
:1022C0002C404FF6FC752C400D882C434FF6FF55E3
:1022D0002A400D894FF6FF7606EA05252A434D88E8
:1022E00006EA05252A43154DA84202D0144DA842FE
:1022F0001DD14FF2FF752A404D894FF6FF7606EA51
:1023000005252A434FF6FF352A408D8806EA052524
:102310002A434EF6FF752B404DF6FF752B408D89F5
:1023200006EA05152B43CD8906EA05152B43838064
:102330008483CD888587028470BD0000002C014015
:10234000003401400A460021818B4FF6F773194093
:10235000114381837047000070B5002200230024E0
:10236000058C4EF6FF7635400584038C8488828B7D
:1023700048F6FF752A404FF6FF452A400D884FF674
:10238000FF7606EA05252A434DF6FF752B400D8999
:1023900006EA05352B434D8806EA05352B430B4DE0
:1023A000A84202D00A4DA84208D14BF6FF752C4036
:1023B0008D894FF6FF7606EA85152C43848082834B
:1023C000CD88A0F84050038470BD0000002C01406F
:1023D000003401400A460021818B4FF2FF731940FF
:1023E0004FF6FF7303EA0223194381837047818606
:1023F00070470187704781877047A0F84010704789
:10240000002202881D4B98420ED01D4B98420BD0E3
:10241000B0F1804F08D01B4B984205D01A4B984220
:1024200002D01A4B984204D14FF68F731A404B8852
:102430001A43174B984207D0164B984204D04FF6D8
:10244000FF431A40CB881A4302808B8883850B8810
:1024500003850A4B98420BD0094B984208D00E4B8B
:10246000984205D00D4B984202D00D4B984201D1B5
:102470000B7A03860123838270470000002C014001
:10248000003401400004004000080040000C0040FF
:102490000010004000140040004001400044014092
:1024A0000048014010B540F22551084800F09CFA60
:1024B00050B10649091D0988C8B2FEF7A7FA40F2D3
:1024C0002551024800F075FA10BD0000004C004094
:1024D00010B540F22551074800F086FA48B1054989
:1024E0008988C8B2FEF716FB40F22551014800F07A
:1024F00060FA10BD0050004010B540F22551084868
:1025000000F072FA50B10649091D0988C8B2FEF7F9
:1025100075F940F22551024800F04BFA10BD000059
:102520000038014000B587B0012144F20400FFF7F4
:1025300041FA18208DF81B004FF40070ADF8180018
:1025400003208DF81A0006A91E48FEF705FD042099
:102550008DF81B000002ADF8180003208DF81A005A
:1025600006A91848FEF7F8FC4FF4E130029000206D
:10257000ADF814000C20ADF812000020ADF81000EA
:10258000ADF80E00ADF80C0002A90F4800F07CFA7F
:1025900001210D4800F01CFA012240F225510A48A1
:1025A00000F04CFA25208DF8040001208DF807007A
:1025B0008DF8050000208DF8060001A8FFF764F9EA
:1025C00007B000BD000801400038014010B540F2DE
:1025D0002551324800F008FA01285ED12F4800F05A
:1025E000BFFA2F490870084601782C4800F0BDFA60
:1025F0002B480078022806D0032814D0052822D0C2
:10260000062844D12FE0012026490860264800789A
:1026100028B92648007810B9012025490870002003
:102620001F49087033E000201E49086020480078E8
:1026300028B91E48007810B901201B4908700020F5
:102640001749087023E001201649086018480078EF
:1026500028B91548007810B90120144908700020E5
:102660000F49087013E001200E490C310860104832
:10267000007840B90D48007828B90B480078012847
:1026800001D10C49087000200549087000BF00BF47
:1026900040F22551014800F08CF910BD0044004083
:1026A000D401002094812142390000203A0000200A
:1026B000380000203B00002000B587B00121042035
:1026C000FFF778F901214804FFF764F90420ADF819
:1026D000180018208DF81B0003208DF81A0006A999
:1026E0001F48FEF739FC0820ADF8180004208DF8CB
:1026F0001B0003208DF81A0006A91948FEF72CFCD0
:102700004FF4165002900020ADF814000C20ADF8E4
:1027100012000020ADF81000ADF80E00ADF80C006E
:1027200002A9104800F0B0F901210E4800F050F95C
:10273000012240F225510B4800F080F926208DF847
:10274000040001208DF8070002208DF80500032009
:102750008DF8060001A8FFF797F807B000BD00004C
:10276000000801400044004010B540F225510848DF
:1027700000F03AF950B10649091D0988C8B2FEF7C0
:10278000C1F840F22551024800F013F910BD0000D5
:102790000048004000B587B001210820FFF70AF982
:1027A00001218804FFF7F6F84FF48060ADF81400BB
:1027B00003208DF8160018208DF8170005A91F4872
:1027C000FEF7CAFB04208DF817004002ADF8140094
:1027D00005A91A48FEF7C0FB4FF4E1300190002034
:1027E000ADF80800ADF80A00ADF80C00ADF8100027
:1027F0000C20ADF80E0001A9114800F045F9402168
:102800000F4800F0CDF8012240F225510C4800F0AD
:1028100015F927208DF8180002208DF819008DF881
:102820001A0001208DF81B0006A8FFF72DF80121E2
:10283000034800F0CDF807B000BD0000000C0140D7
:102840000048004000B587B001211020FFF7B2F822
:102850000121C804FFF79EF818208DF81B004FF4E3
:102860008060ADF8180003208DF81A0006A91F48F3
:10287000FEF772FB04208DF81B004002ADF8180033
:1028800003208DF81A0006A91848FEF765FB4FF4DF
:10289000E13002900020ADF814000C20ADF81200D9
:1028A0000020ADF81000ADF80E00ADF80C0002A944
:1028B0000F4800F0E9F801210D4800F089F80122E5
:1028C00040F225510A4800F0B9F834208DF8040090
:1028D00001208DF8070002208DF8050001208DF8F9
:1028E000060001A8FEF7D0FF07B000BD00100140B0
:1028F000004C004000B587B001213020FFF75AF8A6
:1029000001210805FFF746F803208DF81A0018206A
:102910008DF81B004FF48050ADF8180006A91D4833
:10292000FEF71AFB0420ADF818008DF81B0006A96D
:102930001948FEF711FB4FF4E13002900020ADF88A
:102940000C00ADF80E00ADF81000ADF814000C202E
:10295000ADF8120002A9114800F096F835208DF864
:10296000040002208DF8050000208DF806000120EB
:102970008DF8070001A8FEF787FF012240F22551DC
:10298000064800F05BF80121044800F021F807B088
:1029900000BD000000100140001401400050004044
:1029A00001F40072B2F5007F00D100BFCA4302807B
:1029B000704710B50022002340F66A14A14200D1EE
:1029C00000BF0A1201249440A3B2DC43048010BD6E
:1029D00021B1828942F40052828104E082894DF65D
:1029E000FF731A408281704770B5024600240023AD
:1029F0000025002040F66A16B14200D100BFC1F3A5
:102A0000421501F01F03012606FA03F3012D02D13E
:102A10009689334006E0022D02D1168A334001E048
:102A2000968A33400C12012606FA04F416883440C4
:102A300013B10CB1012000E0002070BDF0B50346D9
:102A4000002400260025002040F66A17B94200D174
:102A500000BF1846C1F3421401F01F06012707FA10
:102A600006F5012C01D10C3004E0022C01D110300C
:102A700000E014301AB107682F43076002E00768CE
:102A8000AF430760F0BD00002DE9F04786B0054672
:102A90000E460024A24600BFA1460027B08900B11F
:102AA00000BF2F462C8A4CF6FF700440F088044388
:102AB0002C82AC894EF6F3100440B088318908436B
:102AC000718908430443AC81AC8A4FF6FF4004404F
:102AD000B0890443AC8201A8FEF77CFF1F488742FF
:102AE00002D1DDF810A001E0DDF80CA0A88900F407
:102AF000004040B10AEBCA0000EB0A1031684900FF
:102B0000B0FBF1F807E00AEBCA0000EB0A103168ED
:102B10008900B0FBF1F86420B8FBF0F00401200953
:102B2000642101FB1089A88900F4004040B13220E3
:102B300000EBC900B0FBF1F000F00700044308E02F
:102B4000322000EB09106421B0FBF1F000F00F001F
:102B500004432C8106B0BDE8F08700000038014036
:102B600001468888C0F308007047C1F308028280DC
:102B700070470000002041E0224931F81010224A3D
:102B800022F81010214931F81010214A22F81010B3
:102B9000204931F81010204A22F810101F4931F84E
:102BA00010101F4A22F810101E4931F810101E4A4A
:102BB00022F810101D4931F810101D4A22F810108B
:102BC0001C4931F810101C4A22F810101B4931F82A
:102BD00010101B4A22F810101A49095C1A4A1154A5
:102BE0001A49095C1A4A11541A49095C1A4A1154C3
:102BF0001A49095C1A4A1154411CC8B20628BBDBA9
:102C0000704700003C0000205C04002048000020C9
:102C1000680400205400002074040020600000209C
:102C2000800400209C0000201C050020A80000203B
:102C300028050020B400002034050020C00000203A
:102C400040050020740100205C0100207A01002072
:102C50006201002080010020680100208601002020
:102C60006E0100202DE9F04389B0864903C9CDE902
:102C700007018449083103C9CDE9050181491031B3
:102C800003C9CDE903017F49183103C9CDE9010129
:102C9000002522E000207C4941F825007B4941F8CD
:102CA00025007B4941F825007A4941F825007A49F9
:102CB00021F81500794921F81500794921F8150006
:102CC000784921F815007849485578494855784998
:102CD000485578494855681CC5B2062DDADB0024F2
:102CE000C9E007A9601C51F8200051F82410401ACF
:102CF000654941F8240005A9601C51F8200051F8ED
:102D00002410401A614941F8240003A9601C51F8BD
:102D1000200051F82410401A5D4941F8240001A90F
:102D2000601C51F8200051F82410401A594941F80C
:102D30002400554850F82400002809DA01205A4997
:102D40000855514850F8240040424F4941F82400AA
:102D50004E4850F82400002809DA0120534908554C
:102D60004A4850F824004042484941F82400484865
:102D700050F82400002803DD01204D49085506E0E5
:102D8000434850F824004042414941F8240041485A
:102D900050F82400002803DD01204649085506E0CC
:102DA0003C4850F8240040423A4941F82400364853
:102DB00050F82400354951F824100844344951F89A
:102DC00024100844334951F824104618F11706EB33
:102DD0009171881000F08AFF80462B4951F8240039
:102DE00000F084FF8146344900F098FF07464146D1
:102DF00000F07EFE064600F059FF274921F8140036
:102E0000224951F8240000F071FF81462A4900F060
:102E100085FF0746414600F06BFE064600F046FF80
:102E20001E4921F814001A4951F8240000F05EFFF1
:102E30008146214900F072FF0746414600F058FEE6
:102E4000064600F033FF164921F81400114951F8E5
:102E5000240000F04BFF8146174900F05FFF074652
:102E6000414600F045FE064600F020FF0D4921F8DE
:102E70001400601CC4B2012CFFF633AF09B0BDE8EA
:102E8000F0830000643F00088C040020A4040020AC
:102E9000BC040020D4040020CC000020D800002076
:102EA000E4000020F00000208C01002092010020AE
:102EB000980100209E0100200000164300BFFEE79D
:102EC0002DE9F04395B01422874910A8FDF7BEF90B
:102ED0001422854914310BA8FDF7B8F91422824950
:102EE000283106A8FDF7B2F914227F493C3101A828
:102EF000FDF7ACF9002522E000207C4941F82500CF
:102F00007B4941F825007B4941F825007A4941F881
:102F100025007A4921F81500794921F815007949E9
:102F200021F81500784921F8150078494855784965
:102F300048557849485578494855681CC5B2062D0A
:102F4000DADB0024C9E010A9601C51F8200051F818
:102F50002410401A654941F824000BA9601C51F85F
:102F6000200051F82410401A614941F8240006A9B4
:102F7000601C51F8200051F82410401A5D4941F8B6
:102F8000240001A9601C51F8200051F82410401AB7
:102F9000594941F82400554850F82400002809DA1E
:102FA00001205A490855514850F8240040424F49E1
:102FB00041F824004E4850F82400002809DA012086
:102FC000534908554A4850F824004042484941F8BE
:102FD0002400484850F82400002803DD01204D4912
:102FE000085506E0434850F824004042414941F862
:102FF0002400414850F82400002803DD0120464900
:10300000085506E03C4850F8240040423A4941F84F
:103010002400364850F82400354951F8241008445B
:10302000344951F824100844334951F82410461803
:10303000F11706EB9171881000F058FE80462B497D
:1030400051F8240000F052FE8146344900F066FE3B
:103050000746414600F04CFD064600F027FE274992
:1030600021F81400224951F8240000F03FFE814667
:103070002A4900F053FE0746414600F039FD064656
:1030800000F014FE1E4921F814001A4951F82400DA
:1030900000F02CFE8146214900F040FE07464146E3
:1030A00000F026FD064600F001FE164921F8140046
:1030B000114951F8240000F019FE8146174900F02B
:1030C0002DFE0746414600F013FD064600F0EEFDDA
:1030D0000D4921F81400601CC4B2042CFFF633AF74
:1030E00015B0BDE8F0830000F43E00088C04002019
:1030F000A4040020BC040020D4040020CC00002044
:10310000D8000020E4000020F00000208C01002006
:1031100092010020980100209E010020000016432B
:1031200010B5044603E04FF47A7000F0A8F82000D0
:10313000A4F101018CB2F6D110BD00006420FFF7AC
:10314000EFFF4FF4A060FEF7D7FBFEF7DFFBFEF7C3
:10315000D1FAFEF7BBFEFEF782FBFEF771F9FDF731
:1031600025F9FEF727F9FFF7DDF9FFF7A5FAFFF7D5
:1031700011FBFFF767FBFFF7BDFB4FF49670FFF7FE
:10318000CFFF002033490860FDF7FEF861E03248C8
:103190000078012804D1FDF7E9F800202E490870D5
:1031A0002E480078012809D1FDF74CF9FFF7E2FC21
:1031B000FDF7AEFD0020294908704AE02848007854
:1031C000012839D127480078012814D1FDF792F958
:1031D000FDF7E6F9FDF7C8FFFDF79AFD40F6B830B8
:1031E000FFF79EFFFEF760FCFDF7BEFFFDF790FDC9
:1031F00000201C490870FFF763FEFDF7B5FFFDF7DF
:1032000087FD19480078012823D1FEF747F9FDF71B
:10321000ABFFFDF77DFDFDF745F9FFF723FDFDF75A
:10322000A3FFFDF775FD00200D4908700E490870D9
:1032300001200C4908700CE00C480078012808D1E6
:10324000FDF7D0F8FDF7ECFCFDF762FD0020074923
:1032500008709CE794812142010000203800002082
:1032600039000020000000203B0000203A00002030
:1032700000BF0100A0F1010290B2FAD1704700B581
:10328000034602E00620FFF7F3FF1800A3F1010157
:103290008BB2F7D100BD000010B591EA030F48BF13
:1032A00083F0004300F14283841A71EB030C05D2D2
:1032B000121943EB0C03001B61EB0C01DFF824E156
:1032C0004FEA1154A4EB135C1EEA430F18BF9EEAA9
:1032D000445F73D023EA0E03DCF1200E21EA04518F
:1032E00043F4801332D322FA0CFE10EB0E0023FAC3
:1032F0000CFE41EB0E01CCF1200E03FA0EFE10EB9A
:103300000E0051F10001B1F5801FCCF1200E32D238
:1033100001EB045112FA0EF2BDE8104058BF70479D
:10332000401C38BF5FEA420218BF7047002814BF34
:1033300020F0010041F100014FEA410313F5001FA5
:1033400038BF7047A1F1C04100F0E2BA012A43EB57
:103350000302ACF1200CDCF11F0E32BF4FF0000E67
:1033600023FA0CF310EB030041EB0451B4EB115FB3
:10337000D0D0A1EB045101F5801149085FEA30007B
:1033800001EB04510ED350F1000038BF12FA0EFECB
:1033900008D1BDE81040C9E7401C38BF5FEA4202CF
:1033A000CAD1C3E7BDE810404FEA410313F5001F3F
:1033B00038BF7047A1F1C04100F0AABA9EEA445F4D
:1033C00008D011EA5E0FBDE8104004BF01F00041D3
:1033D00000207047BDE8104070B500F04BFA00BF08
:1033E00064FBBE3E0000E0FF2DE9C04130B4DFF8D1
:1033F000A0C23CEA111418BF3CEA131400F0EC80A0
:1034000081EA03051CEA111444EAD57418BF1CEACA
:10341000131500F0C780A4EB05044FF0004545EA02
:10342000C12145EAC32341EA505143EA525304F112
:103430007F74994204F500344FEAC0204FEAC2225B
:1034400008BF904200F09C804FEA13650FF24016CF
:10345000765D4FEA134506FB05F7C7F1807706FB5B
:1034600007F74FEAD737A7FB03687642C8F58038DD
:10347000A7FB06CE38BFA8F1010807FB08E64FF00E
:10348000000EA6FB028CE6FB03CEDCF1000CCEF1B5
:10349000004E38BFAEF1010EA6FB0C584FF00007EE
:1034A0004FF00005E6FB0E87A1FB08C6A0FB07CE88
:1034B00016EB0E0645F10005E1FB076515F1E04E40
:1034C0007EBFA4F580345FEA46066D4116F18007A1
:1034D00045F100054FEA17274FEA066647EA0567F8
:1034E000A6F1DE46B6F1805F4FEA15251FD93846B2
:1034F00024F0010C05EBC471BCF1FE6F01EB0C1163
:1035000002D8F0BCBDE8008124425CBF01F5801EFA
:103510009EEAC47F02D4F0BCBDE80081244238D4C6
:10352000F0BCA1F1C041BDE8004100F0F1B94FEAA3
:10353000D22242EA43524FEAD323A7FB02864FEA44
:10354000D02040EA415007FB03661EEA0E0F4FEA07
:10355000D12105FB026658BFA6EB0056B6EB00561C
:103560004FEA520E4EEAC37E18EB0E0E56EB530E88
:10357000BDD518EB02085E417F1C55F10005B6E78A
:103580004FF480154FF000074FF000064FF0000891
:10359000ADE7F0BC4FF0000001F1C04101F0004187
:1035A000BDE8008111EA0C1F0CEA131500D00CE0F5
:1035B00013EA0C1F00F025804FF00000F0BC81EAF8
:1035C000030101F00041BDE80081F0BCBDE800410D
:1035D00081EA030100F09CB9F0BCBDE8004170B580
:1035E00000F048F9097EFC3E00F007B881EA0301CB
:1035F0004FF0000001F00041704781EA030100F044
:1036000087B9F0BCBDE800414FF000002149704788
:10361000FFFDFBF9F7F5F4F2F0EEEDEBE9E8E6E497
:10362000E3E1E0DEDDDBDAD8D7D5D4D3D1D0CFCD1E
:10363000CCCBCAC8C7C6C5C4C2C1C0BFBEBDBCBB57
:10364000BAB9B8B7B6B5B4B3B2B1B0AFAEADACAB52
:10365000AAA9A8A8A7A6A5A4A3A3A2A1A09F9F9E2C
:103660009D9C9C9B9A9999989797969595949393DE
:10367000929191908F8F8E8E8D8C8C8B8B8A898975
:1036800088888787868585848483838282818180F8
:103690000000FF070000F87F4FEA1153A3F5806395
:1036A000D3F11E03A8BFD3F1200C08DB4FF000427A
:1036B00042EAC12252EA505232FA03F070470942FC
:1036C0000BD4102BC4BF0020704703F5787CBCF1ED
:1036D000FF3F05D04FF0FF3070474FF000007047BC
:1036E00070B500F0C7F800BF4992248000207047F1
:1036F000F0E710F0004248BF4042B0FA80F310FA01
:1037000003F10AD0C3F11D0303F580634FEA415072
:1037100002EB035202EBD12170474FF000007047DB
:10372000DFF848C170B51CEA111E1EBF1CEA131554
:103730009EEA0C0F95EA0C0F00F06F8081EA0304FB
:1037400023EA4C134EEAD47E21EA4C1141F4801155
:1037500043F48013AE44A1FB024CA0FB0365AEF121
:103760007F7E361955EB0C05A1FB034C4CF1000391
:10377000A0FB021C16EB0C06654153F10003094245
:1037800018BF46F0010613F4007F0BD14FEA033156
:103790004FEA0530340341EA155140EA16506FF004
:1037A00003020AE04FEAC3214FEAC520F40241EACE
:1037B000555140EA56506FF0020202EB2E4201EBE7
:1037C000025585EACE710AD05FEA440C18BF24F096
:1037D000004450F1000041F1000120EAD47040F2B1
:1037E000FE7C624500D270BDA84214BF4FF08044F9
:1037F0004FF04044002E08BF0024BEF1806FA8BFE8
:10380000A1F1C041BDE8704080F282804FF000001D
:1038100001F1C04101F0004170479EEA0C0F0CEA33
:10382000131518BF95EA0C0F06D04FF0000081EA7F
:10383000030E0EF0004170BD00F01CF88900013E3F
:1038400000F007B800F009B84FEA430C5FEA5C5C8F
:1038500008D081EA030100F05BB84FEA410C5FEA4F
:103860005C5CF6D14FF00000014970470000FF0793
:103870000000F87F0EF1020E2EF0030E5EF8046BCE
:10388000364205D4012A43EB030515F5001F12D873
:10389000012841EB010C1CF5001F0CD80ED14FEA9A
:1038A000D17C15F5001F0CEB4C0C0CF1020C08BF81
:1038B0004CEBD37C04E04FF0080C01E04FEAD37CE2
:1038C0000CEB4C0526FA05F606F00706B6F1040CDB
:1038D00006D20EEB860CBDE870404CF0010C604740
:1038E000DFE80CF0090B02024FF000414FF000003E
:1038F000A1F5002170BD19461046012851EB0104C5
:1039000018BFD4F5001484BF002001F0004170BD41
:103910000808A0F500114FEA3101704710B591EA8F
:10392000030F48BF83F000433FF5BEAC841A71EB30
:10393000030C07D212198CF0004C43EB0C03001B54
:1039400061EB0C01DFF8A4E14FEA1154A4EB135C26
:103950001EEA430F18BF9EEA445F00F0B08023EADE
:103960006E03524221EA0451C3EB6E0338BF5B1E63
:10397000DCF1200E25D322FA0CFE10EB0E0043FAE8
:103980000CFE41EB0E01CCF1200E03FA0EFE10EB03
:103990000E0051F10001CCF1200E29D412FA0EF2E2
:1039A00001EB0451BDE8104058BF7047401C1CBFDC
:1039B000B2F1004F704700280CBF491C20F00100F5
:1039C000704712EB020E43EB030218BF4FF0010EDB
:1039D0004EEA4202ACF1200CDCF11E0E54D943FA3F
:1039E0000CFE10EB0E0051F1FF31CCF11E0ED5D5BF
:1039F0000EF1010E12FA0EFE404141EB010101EB06
:103A0000445C5FEA5C5C10D910EBDE7001EB0451A2
:103A100038BFBEF1004FBDE8104018BF7047002806
:103A20000CBF491C20F00100704730D24FEAD42C63
:103A300011F5001124F400641BD0B1FA81F20B3AA5
:103A4000A41AA41ED2F12003914030FA03F31943C3
:103A5000904001EBCC71002C01EB0451BDE810400B
:103A6000A8BF704701F1C0414FF0000001F00041D4
:103A70007047B0FA80F310FA03F100D110BDE41AD8
:103A8000173C4805C90AE4E701EB045110BD491091
:103A900001EB0451BDE810404FEA300002E04FF066
:103AA000000170474A0008BF0042F8D0B2F5001F7D
:103AB00028BF704701F000414FF0000070479EEAB8
:103AC000445F07D011EA5E0FBDE8104004BF00213B
:103AD00000207047BDE8104070B5FFF7CBFE00BF77
:103AE00040DFF63E83F00041104670470000E0FFE3
:103AF0004FF47F0C1CEAD0121EBF1CEAD11392EACD
:103B00000C0F93EA0C0F00F0858090EA010F48BF7C
:103B100042F4807240F4000C41F400002CF07F412C
:103B200020F07F4000B58142A2EB03020FF2081C97
:103B3000ACEB504EC0F100009EF800E04FEA4E0E94
:103B400000FB0EFC38BF49004FEA2C1C02F5FA02BC
:103B50000CFB0EF34FEACE1E4FEA112C4FEAC121A7
:103B60000EEB635E42EB22420EFB0CFC4FEA1C5351
:103B700000FB03114FEA112C4FEA01310EFB0CFC44
:103B80004FEADC4C00FB0C11C14228BF09184CEB7A
:103B900003335DF804EB10EB410143EBC250B2F587
:103BA0007C0F38BF704729D512F0F00F1CBF00F111
:103BB000C04000F000407047008182838485868782
:103BC00088898B8C8D8E8F919293959697999A9CDC
:103BD0009D9FA0A2A3A5A7A8AAACAEB0B2B3B5B74B
:103BE000B9BCBEC0C2C5C7C9CCCED1D4D7D9DCDF21
:103BF000E2E6E9ECF0F3F7FAFE0000004FEA400CD1
:103C00000CF1807CBCF17E4F28BF7047B0F1C04002
:103C100000F04BB990EA010F0CEAD11348BF42F40F
:103C20008072624538BF634507D213F47F0F16D008
:103C300080EA010000F00040704710B500F0EFF896
:103C4000097EFC3E00F005B880EA010000F000406B
:103C5000704780EA010000F0004000F026B912F43D
:103C60007F0F04BF0248704780EA010000F01DB9D1
:103C70000000C07F41000B0ED3F19E0208D950F422
:103C800000034FEA032323FA02F048BF4042704783
:103C900010B500F0C4F800BF49922480002070479E
:103CA0006FF0004282EA200070470000C10DD1F1A0
:103CB0009E0206DB4FEA002343F0004323FA02F0A2
:103CC0007047004207D54FEA4001B1F1FE4F02D2E2
:103CD0004FF00000704710B500F0A1F84992248021
:103CE000002070476FEA20007047000010F000418C
:103CF00048BF4042B0FA80F310FA03F2C3F19D03CB
:103D00000BD051EAC35101EB1220530638BF704764
:103D100000F1010008BF20F0010070474FF47F0C54
:103D20001CEAD0121EBF1CEAD11392EA0C0F93EAD0
:103D30000C0F00F0478090EA010F48BF42F48072F8
:103D40004FF0004C4CEA00204CEA012102EB030248
:103D5000A0FB0113A2F50002002918BF43F00103E4
:103D60005B0028BF4FEA330342EB22425FEA132C89
:103D70004CEBC2502EBFBCEB436FB2F57C0F7047CB
:103D80004FEA036CBCF1004F08BF20F00100B2F510
:103D90007C0F38BF70470BD582F0FF0212F5803FD1
:103DA000C8BF704700F1C040D8BF00F00040704766
:103DB00000F5000C5FEA4C0C48BF7047B0F1C04002
:103DC00000F073B890EA010F0CEAD11348BF42F437
:103DD0008072624538BF634504D280EA010000F07A
:103DE0000040704710B500F01AF800BF8900013E8E
:103DF00000F007B800F009B85FEA410C5FEA1C6CFC
:103E000008D080EA010000F050B85FEA400C5FEA99
:103E10001C6CF6D14FF00040A0F5800070470EF109
:103E2000020E2EF0030E5EF8044B244204D44FEA37
:103E30004102B2F17F4F11D84FEA4003B3F17F4FF7
:103E40000CD80ED14FEAD07CB2F17F4F0CEB4C0C6A
:103E50000CF1020C08BF4CEBD17C04E04FF0080CD5
:103E600001E04FEAD17C0CEB4C0324FA03F404F09C
:103E70000704B4F1040C06D20EEB840CBDE810402C
:103E80004CF0010C6047DFE80CF0070802024FF02D
:103E90000040A0F5800010BD0846420018BFD2F1D6
:103EA000807288BF00F0004010BDFF2141EAD05071
:103EB000C0057047000000000D0000000000000079
:103EC00003000000000000000D00000000000000E2
:103ED00003000000F9FFFFFFF6FFFFFFF2FFFFFF07
:103EE000EDFFFFFF2700000012000000E1FFFFFFD1
:103EF0000B000000F6FFFFFF1D0000000F00000098
:103F0000F9FFFFFFF6FFFFFFEDFFFFFFE2FFFFFFFF
:103F10000B000000F2FFFFFFEDFFFFFF12000000AB
:103F2000FAFFFFFFF8FFFFFF27000000120000006C
:103F30000B000000F2FFFFFFECFFFFFFE1FFFFFFC0
:103F40000B000000F6FFFFFF00000000EDFFFFFF89
:103F50000000000012000000000000000B00000044
:103F6000000000000D000000000000000300000041
:103F7000000000000D000000000000000300000031
:103F800000000000A43F0008000000202003000003
:103F90006C0100080440000820030020780D000098
:103FA000C80100084301012D010203040400092691
:103FB0000607080902040608120D0A2B670C126E88
:103FC0009214B25A09161812640A2BC80C127912EC
:103FD000A272CB142301F072BF12C2129C7A770C2A
:103FE00012F03A1FF4219ADC3CB2B40916180A2DDB
:103FF000640C011939804985598B5907092730010B
:04400000FF016A0052
:0400000508000131BD
:00000001FF
